:100000000C9468000C9490000C9490000C94900058
:100010000C9490000C9490000C9490000C94900020
:100020000C9490000C9490000C9490000C94900010
:100030000C9490000C9490000C9490000C94900000
:100040000C9451090C9490000C941F090C94F9081D
:100050000C9490000C9490000C9490000C949000E0
:100060000C9490000C949000005EBCE2613FDD8334
:10007000C29C7E20A3FD1F41009D23BE46DB65F888
:100080008C11AF32CA57E974000000002500280027
:100090002B0000000000240027002A0000000000C0
:1000A00023002600290004040404040404040202BA
:1000B00002020202030303030303010204081020E7
:1000C00040800102040810200102040810209B094E
:1000D00011241FBECFEFD8E0DEBFCDBF23E0AAE7DB
:1000E000B2E001C01D92A235B207E1F712E0A0E034
:1000F000B1E0E0EAFDE102C005900D92AA37B10738
:10010000D9F710E0C8E6D0E004C02197FE010E94B4
:10011000C80EC736D107C9F70E94440A0C94CE0E08
:100120000C940000AF92BF92CF92DF92EF92FF92B9
:100130000F931F93CF93DF936C017B018B01040F0F
:10014000151FEB015E01AE18BF08C017D10759F0AB
:100150006991D601ED91FC910190F081E02DC601ED
:100160000995892B79F7C501DF91CF911F910F91E7
:10017000FF90EF90DF90CF90BF90AF900895FC017B
:10018000538D448D252F30E0842F90E0821B930BFC
:10019000541710F0CF96089501970895FC01918DA2
:1001A000828D981761F0A28DAE0FBF2FB11D5D96A5
:1001B0008C91928D9F5F9F73928F90E008958FEF47
:1001C0009FEF0895FC01918D828D981731F0828DFB
:1001D000E80FF11D858D90E008958FEF9FEF089552
:1001E000FC01918D228D892F90E0805C9F4F821BB6
:1001F00091098F739927089583E992E00E94F00096
:1002000021E0892B09F420E0822F089580E090E01E
:10021000892B29F00E94FC0081110C9400000895A4
:10022000FC01A48DA80FB92FB11DA35ABF4F2C916B
:10023000848D90E001968F739927848FA689B78962
:100240002C93A089B1898C91837080648C93938D59
:10025000848D981306C00288F389E02D80818F7DFC
:1002600080830895EF92FF920F931F93CF93DF93B4
:10027000EC0181E0888F9B8D8C8D98131AC0E889E2
:10028000F989808185FF15C09FB7F894EE89FF89B1
:100290006083E889F98980818370806480839FBF4F
:1002A00081E090E0DF91CF911F910F91FF90EF904F
:1002B0000895F62E0B8D10E00F5F1F4F0F7311275F
:1002C000E02E8C8D8E110CC00FB607FCFACFE8899A
:1002D000F989808185FFF5CFCE010E941001F1CF11
:1002E000EB8DEC0FFD2FF11DE35AFF4FF0829FB70E
:1002F000F8940B8FEA89FB8980818062CFCFCF93FE
:10030000DF93EC01888D8823B9F0AA89BB89E8893D
:10031000F9898C9185FD03C0808186FD0DC00FB6E3
:1003200007FCF7CF8C9185FFF2CF808185FFEDCF61
:10033000CE010E941001E9CFDF91CF9108953FB720
:10034000F8948091810290918202A0918302B091F1
:10035000840226B5A89B05C02F3F19F00196A11D68
:10036000B11D3FBFBA2FA92F982F8827BC01CD01FF
:10037000620F711D811D911D42E0660F771F881F5E
:10038000991F4A95D1F708958F929F92AF92BF928D
:10039000CF92DF92EF92FF926B017C010E949F014E
:1003A0004B015C01C114D104E104F104B9F00E94D5
:1003B0009F01681979098A099B09683E7340810584
:1003C000910580F321E0C21AD108E108F10888EE16
:1003D000880E83E0981EA11CB11CE4CFFF90EF9023
:1003E000DF90CF90BF90AF909F908F9008952FB7E0
:1003F000F89460917D0270917E0280917F029091CD
:1004000080022FBF08950F931F930E94F7016093FE
:100410009B0270939C0280939D0290939E0283E9BD
:1004200092E00E94E20097FF1DC00E94F701009138
:100430009B0210919C0220919D0230919E02601BB4
:10044000710B820B930B00919702109198022091EF
:10045000990230919A026017710782079307F8F2A8
:100460008FEF9FEF1F910F910895DC0180E06150A5
:1004700090F09D919827E92FEF70F0E0E859FF4F39
:100480002491E92FE295EF70F0E0E858FF4FE491F6
:10049000822F8E27ECCF0895DC012C911196ED91DF
:1004A000FC91F8948181822B81839281322F309547
:1004B0009323928387E090E00197F1F78181832372
:1004C000818383E290E00197F1F790817894EFECDB
:1004D000F0E03197F1F7922381E009F480E008958C
:1004E000FC0190810180F281E02D292F209560FF91
:1004F00014C0F8948281822382838181892B818335
:10050000A3E2B0E01197F1F78281982B928378945F
:1005100087ED90E00197F1F70895F89482818223A6
:1005200082838181892B8183AFEFB0E01197F1F74E
:100530008281982B928378948FE090E0EBCFDF92CA
:10054000EF92FF920F931F93CF93DF93EC01D62E80
:10055000E42E08E010E0FF24F39461E08D2D8F215C
:1005600009F460E0CE010E947002FF0C01501109F5
:10057000A1F7E11010C0F894E981FA819181888196
:10058000809589238183E981FA8192818881809590
:10059000892382837894DF91CF911F910F91FF90EF
:1005A000EF90DF900895EF92FF920F931F93CF93F8
:1005B000DF938C017B0140E065E50E949F02E7012B
:1005C00088E0E80EF11C699140E0C8010E949F029A
:1005D000CE15DF05C1F7DF91CF911F910F91FF90ED
:1005E000EF900895FC0190810180F281E02DF89454
:1005F0008181292F20958223818378943DE743E0F0
:1006000050E0315029F1DA011197F1F78081892307
:10061000C1F3F8948281822382838181892B818333
:100620007894ABE7B7E01197F1F7F89481818223D2
:100630008183A3E1B1E01197F1F78081982381E0F4
:1006400009F080E07894E3E6F6E03197F1F7089559
:1006500080E00895AF92BF92CF92DF92EF92FF9227
:100660000F931F93CF93DF938B01BC0180913603CF
:10067000909137030E94D30240E06EEB80913603E5
:10068000909137030E949F02E801680189E0C80E3B
:10069000D11CA0903603B090370388E0E82EF12CEF
:1006A00010E001E0C5010E944C028111102B000FE7
:1006B00081E0E81AF108B1F71993CC16DD0649F785
:1006C00080913603909137030E94F20291E08130CD
:1006D00009F090E0892FDF91CF911F910F91FF904A
:1006E000EF90DF90CF90BF90AF9008950F931F933E
:1006F000CF93DF93CDB7DEB729970FB6F894DEBF5F
:100700000FBECDBF8C0180913603909137030E94BC
:10071000F202811102C080E01FC0BE016F5F7F4FF7
:10072000C8010E942A038823B1F368E0CE01019634
:100730000E94350299858913EECF8D818F33B9F0F0
:1007400020F48F3141F789E007C08F3521F08F37D2
:1007500011F78CE001C08BE029960FB6F894DEBF4C
:100760000FBECDBFDF91CF911F910F9108958AE009
:10077000F3CFFC0101900020E9F73197AF01481B4E
:10078000590BBC0183E992E00C9492008F929F92E6
:10079000AF92BF920F931F93CF93DF93CDB7DEB786
:1007A000A1970FB6F894DEBF0FBECDBF19A242309D
:1007B00008F44AE08E010F5D1F4F842E912CB12C5E
:1007C000A12CA50194010E94920EE62FB901CA0145
:1007D000EA30F4F4E05DD801EE938D01232B242B55
:1007E000252B79F790E080E0109719F0CD010E9459
:1007F000B903A1960FB6F894DEBF0FBECDBFDF914F
:10080000CF911F910F91BF90AF909F908F900895BF
:10081000E95CE1CFCF92DF92EF92FF92CF93DF932B
:100820006B017C016DE283E992E00E943201EC01F0
:1008300066277727CB016C197D098E099F094AE04D
:100840000E94C6038C0F9D1FDF91CF91FF90EF9008
:10085000DF90CF9008950C94B903CF93DF930E945B
:10086000B903EC0188E191E00E94B9038C0F9D1F50
:10087000DF91CF9108954F925F926F927F928F9206
:100880009F92AF92BF92CF92DF92EF92FF920F931F
:100890001F93CF936B017C01742EAC019B010E94CE
:1008A000790E882399F08BE191E0CF911F910F9100
:1008B000FF90EF90DF90CF90BF90AF909F908F9080
:1008C0007F906F905F904F900C94B9034601570151
:1008D000E894B7F82FEF3FEF4FE75FE7C501B401AA
:1008E0000E94790E81110DC02FEF3FEF4FE75FE7B8
:1008F000C501B4010E94280C18161CF48FE191E088
:10090000D4CF2FEF3FEF4FE75FE4C701B6010E945E
:10091000740E18161CF483E291E0C7CF2FEF3FEF5F
:100920004FE75FECC701B6010E94280C87FDF3CFAB
:1009300020E030E0A901C701B6010E94280C10E0B8
:1009400000E087FF0AC06DE283E992E00E94320175
:100950008C01F7FAF094F7F8F094C0E060E070E0F2
:1009600080E09FE37C1641F020E030E040E251E47B
:100970000E94D30DCF5FF6CFA70196010E94670DAD
:100980002B013C010E94450E4B015C014AE00E9494
:10099000C6037C01E00EF11ECC23C1F1C501B401F8
:1009A0000E942D0C9B01AC01C301B2010E94660D97
:1009B0004B015C016EE283E992E00E943201E80E95
:1009C000F91EC15018F120E030E040E251E4C501C9
:1009D000B4010E948E0C2B013C010E94450E4B017C
:1009E000B12CA12C4AE0C501B4010E94C603E80E57
:1009F000F91EC501B4010E942D0C9B01AC01C3017D
:100A0000B2010E94660D4B015C01DBCFC701CF91A3
:100A10001F910F91FF90EF90DF90CF90BF90AF901C
:100A20009F908F907F906F905F904F90089597FD6B
:100A30000C940A044AE00C94C603BF92CF92DF9252
:100A4000EF92FF920F931F93CF93DF93EC01B62E9B
:100A5000C72E8D85811105C0CE010E94F202811141
:100A60000EC01B861D861C8680E0DF91CF911F91F2
:100A70000F91FF90EF90DF90CF90BF90089540E0EE
:100A800060EFCE010E949F0201E0E12CD12C11E029
:100A9000CE010E944C02F82ECE010E944C0291E041
:100AA000F91218C0813099F51134D8F2DB86D110D3
:100AB00002C081E08D878B81882399F22396EB2DEC
:100AC000FC2DCF01089629912193E817F907D9F752
:100AD00081E0CBCFEE2DF0E0F8120FC08B85181718
:100AE000A0F4DE01AE0FBF1F13968C91802379F422
:100AF000F12C193008F41C87D12EEC0FFD1F8381D7
:100B0000902F9095892383830AC08113F1CFFE0132
:100B1000EE0DF11D8381802B8383FF24F3946F2DD1
:100B2000CE010E9470021F5F000F11F4E39401E0F8
:100B300087E08E1508F0ACCFB7CF1F93CF93DF932C
:100B4000182FE0913603F09137031386158614862B
:100B500012861186108617821682158214821382DD
:100B6000C0E06BE872E080913603909137030E94F9
:100B70001D05D82F882329F01C1729F0CF5F1C17DB
:100B800080F7D0E009C067E08BE892E00E94350270
:100B9000909192028913F2CF8D2FDF91CF911F9107
:100BA00008950F931F93CF93DF93EC018C01085F9F
:100BB0001F4F8991803120F487E291E00E942B043D
:100BC000FE013197608170E090E080E040E10E949A
:100BD000C603C017D10769F7DF91CF911F910F911D
:100BE00008952F923F924F925F926F927F928F92D1
:100BF0009F92AF92BF92CF92DF92EF92FF920F93AC
:100C00001F93CF93DF93CDB7DEB7C65FD3400FB648
:100C1000F894DEBF0FBECDBF4DB65EB6CD50DC4FF3
:100C200059824882C35FD3408091340390E090930F
:100C30008A028093890283E992E00E94F0001816EC
:100C400019060CF0B1C26DB67EB6C351DC4F798285
:100C50006882CD5ED340C12CD12C7601809189026F
:100C600090918A02C816D906BCF48C2D0E949D056D
:100C70002FEFC21AD20AE20AF20A8111EFCF89E2FB
:100C800091E00E942B04C701B6010E94170580E481
:100C900091E00E942B04E2CF181619060CF023C134
:100CA00088E791E00E942D0482E891E00E942D04E3
:100CB00080913603909137030E94F20240E06CEC81
:100CC00080913603909137030E949F024091300338
:100CD00064E480913603909137030E949F028091D3
:100CE0003203882391F1E0913103E9500EEE12E0D6
:100CF000E33038F4F0E0EE0FFF1FE050FF4F0081CB
:100D0000118180913303882309F4F2C0809130036C
:100D10008111EEC00E94F7016B017C014801110FA7
:100D2000AA08BB0880913603909137030E944C02B9
:100D3000813059F00E94F701681979098A099B09E5
:100D40006C157D058E059F0568F380918902909151
:100D50008A029C01220F331F220F331F4DB75EB74B
:100D6000421B530B0FB6F8945EBF0FBE4DBF6DB75D
:100D70007EB76F5F7F4F5B01880F991FADB7BEB71E
:100D8000A81BB90B0FB6F894BEBF0FBEADBFEDB731
:100D9000FEB731961F010E94F7012B013C0110E0C4
:100DA00000E08091890290918A02081719070CF0DF
:100DB000ADC0802F0E949D0598012F5F3F4F4901D4
:100DC000882309F48EC080913603909137030E94E6
:100DD000F202882309F493C0BE016F5F7F4F8BE856
:100DE00092E00E942A03882309F489C068E0CE01BA
:100DF00001960E9435029985891381C06A8170E04D
:100E0000762F6627770F770F770F298148E0249F89
:100E100090011124262B372B80918B028031D1F445
:100E2000688570E08F81DB01A81BB109CD01969523
:100E3000982F8827979587950E947E0ECB01409723
:100E4000B901A3E0660F771FAA95E1F760789C01CE
:100E5000260F371F2138B4EE3B070CF450C0B90100
:100E6000330F880B990B0E942F0C20E030E040E0FC
:100E70005CE30E948E0C6B017C01F801EE0FFF1FFA
:100E8000EE0FFF1FEA0DFB1DC082D182E282F382CA
:100E9000000F111FF101E00FF11F2BE832E0318349
:100EA000208381E392E00E942B04B401092C000C02
:100EB000880B990B0E9417058DE292E00E942B048B
:100EC0008BE892E00E94D1058DE292E00E942B0413
:100ED00042E0C701B6010E943B0488E191E00E9414
:100EE000B90384015ECF8BEA91E00E942B04E0CE2F
:100EF000B801110F880B990B0E94C40126CFC12C99
:100F0000D12CEEEFEE2EE2ECFE2EB7CF85EC91E089
:100F10000E942D048CEE91E00E942D0484EF91E05C
:100F20000E942B0488E191E00E94B903C301B20141
:100F300020E63AEE40E050E00E94920EC151DC4FB4
:100F4000288339834A835B83CF5ED340C751DC4F0C
:100F5000B982A882C95ED340C551DC4F398228824C
:100F6000CB5ED340C12CD12C7601C394312C212CE3
:100F70008091890290918A02281639060CF0FEC0F1
:100F8000822D0E949D05882349F1C751DC4FA8811D
:100F9000B981C95ED3408D909D90AD90BC90A50164
:100FA00094016091850270918602809187029091F0
:100FB00088020E94660D2B013C0120E030E0A9016F
:100FC0000E94740E18166CF420E030E040E050E40B
:100FD000C301B2010E94740E18166CF0912C812C82
:100FE0003CC020E030E040E050ECC301B2010E9480
:100FF000280C87FFF3CF00917A0210917B029801B1
:101000002F5F3F4F30937B0220937A0290E080E085
:10101000BAE0B29FF001B39FF00D11244424439431
:10102000512C4C0E5D1EE40DF51DAF014E5F5F4F60
:10103000BF016A5F7F4FCB50DC4F79836883C55F08
:10104000D340821793070CF44FC017FF02C00FEF75
:101050001FEF48017FEF871A970A80917A029091DB
:101060007B02181619060CF064C08E010F5F1F4F2B
:10107000B12CA12CA814B9040CF05BC081E392E060
:101080000E942B044AE0C701B6010E94C6038DE20C
:1010900092E00E942B04BFEFAB1ABB0AF8018285D5
:1010A00093850E94D1058DE292E00E942B04D80125
:1010B0001C966D917D918D919C911F9742E00E94AD
:1010C0003B0489E292E00E942B04F8016089718957
:1010D000828993894AE00E94C60388E191E00E94D8
:1010E000B903065F1F4FC6CFC551DC4FA881B98138
:1010F000CB5ED3406D917C9171836083DA018D92D8
:101100009D92AD92BC921397C151DC4F488059809B
:101110006A807B80CF5ED340CB50DC4FA881B98101
:10112000C55FD3404D925D926D927C92139701966C
:1011300088CFFFEF2F1A3F0A2FEFC21AD20AE20A16
:10114000F20AC751DC4F48815981C95ED3404C5FD8
:101150005F4FC751DC4F59834883C95ED340C551A7
:10116000DC4F68817981CB5ED3406E5F7F4FC55184
:10117000DC4F79836883CB5ED340FACE88E191E07F
:101180000E94B90368E873E180E090E00E94C40126
:10119000C351DC4F48805980CD5ED3400FB6F894E0
:1011A0005EBE0FBE4DBE47CDCD50DC4F688079800E
:1011B000C35FD3400FB6F8947EBE0FBE6DBECA505B
:1011C000DC4F0FB6F894DEBF0FBECDBFDF91CF91DD
:1011D0001F910F91FF90EF90DF90CF90BF90AF9055
:1011E0009F908F907F906F905F904F903F902F9047
:1011F00008951F920F920FB60F9211242F933F93D1
:101200004F935F936F937F938F939F93AF93BF930E
:10121000EF93FF9383E992E00E941001FF91EF9119
:10122000BF91AF919F918F917F916F915F914F91FE
:101230003F912F910F900FBE0F901F9018951F9206
:101240000F920FB60F9211242F938F939F93EF93CA
:10125000FF93E091A302F091A4028081E091A902A2
:10126000F091AA0282FD1BC090818091AC028F5F39
:101270008F732091AD02821741F0E091AC02F0E053
:10128000ED56FD4F958F8093AC02FF91EF919F91AA
:101290008F912F910F900FBE0F901F901895808106
:1012A000F4CF1F920F920FB60F9211242F933F93FA
:1012B0008F939F93AF93BF9380917D0290917E0215
:1012C000A0917F02B091800230917C0223E0230F35
:1012D0002D3758F50196A11DB11D20937C028093F6
:1012E0007D0290937E02A0937F02B0938002809152
:1012F000810290918202A0918302B09184020196B2
:10130000A11DB11D8093810290938202A09383025C
:10131000B0938402BF91AF919F918F913F912F9194
:101320000F900FBE0F901F90189526E8230F02967E
:10133000A11DB11DD2CFCF93DF93109296021092D0
:10134000950288EE93E0A0E0B0E08093970290933E
:101350009802A0939902B0939A028AE091E0909348
:1013600094028093930285EC90E09093A002809386
:101370009F0284EC90E09093A2028093A10280EC03
:1013800090E09093A4028093A30281EC90E090936C
:10139000A6028093A50282EC90E09093A80280932D
:1013A000A70286EC90E09093AA028093A902109283
:1013B000AC021092AD021092AE021092AF024CEB52
:1013C00050E0FA01649188EA90E0FC012491222324
:1013D000C1F030E0220F331FF901EE56FF4FA59107
:1013E000B491F901E857FF4FC591D4917FB7F894B4
:1013F0003C91262F209532233C9338812323288348
:101400007FBFFA01449140934403FC018491E82F8B
:10141000F0E0EE0FFF1FE456FF4F859194919093FB
:1014200046038093450310924F031092510310928C
:10143000500310924E0310924D0310924C031092E1
:101440004B0310924A0310924903109248031092E2
:10145000470384E493E0909337038093360310921C
:101460003403109235031092300389E080933103E6
:1014700081E08093320380933303109243031092F0
:101480004203DF91CF910895CF93DF93CDB7DEB7BD
:1014900028970FB6F894DEBF0FBECDBF789484B501
:1014A000826084BD84B5816084BD85B5826085BD60
:1014B00085B5816085BD80916E00816080936E00EE
:1014C00010928100809181008260809381008091E0
:1014D0008100816080938100809180008160809391
:1014E00080008091B10084608093B1008091B00051
:1014F00081608093B00080917A00846080937A004C
:1015000080917A00826080937A0080917A00816075
:1015100080937A0080917A00806880937A0010929C
:10152000C100E091A302F091A40282E08083E091E7
:101530009F02F091A0021082E091A102F091A2021C
:101540008FEC80831092AB02E091A702F091A80289
:1015500086E08083E091A502F091A60280818061FF
:101560008083E091A502F091A6028081886080834B
:10157000E091A502F091A602808180688083E091CD
:10158000A502F091A60280818F7D8083E0913603D1
:10159000F0913703138615861486128611861086FD
:1015A00017821682158214821382109234031092CD
:1015B000350301E0BE016F5F7F4F8091360390914C
:1015C00037030E941D05882309F468C067E0CE0137
:1015D00001960E94350298858913ECCF80913003E3
:1015E000811128C080913603909137030E94F20246
:1015F000BE016F5F7F4F80913603909137030E9449
:10160000D30240E064EB80913603909137030E944F
:101610009F0280913603909137030E944C02182F4D
:1016200080913603909137030E94F202111102C09B
:1016300000933003109131038981803109F404C192
:10164000CE0101960E9476038117C0F48091310388
:1016500080933103809134038F5F809334038981B9
:10166000883231F0A8F4803119F0823209F0A2CF2B
:10167000809135038F5F809335039CCF89818031C2
:1016800011F48CE0E5CFCE0101960E947603E0CF05
:101690008B3371F3823409F08DCFEACF809134031C
:1016A00090E090938A028093890284E392E00E9402
:1016B0002B0488E492E00E942B04609189027091CF
:1016C0008A02072E000C880B990B0E94170580E5F3
:1016D00092E00E942D048AE592E00E942B0483E9A7
:1016E00092E00E94F000892B09F08AC00E94030258
:1016F000FC0197FD81C08D32910559F0C0970A9782
:1017000040F0EE32F10529F083E992E00E94CE002C
:10171000EDCF10E000E0812C912C80E8A82E8FE323
:10172000B82EC12CD12C7601E130F10549F1ED3212
:10173000F105C9F1EE32F105C1F1CF01C0970A9769
:10174000F8F4AAE0B0E0A70196010E944C0D6F01E9
:10175000FF0FEE08FF08C60ED71EE81EF91E80E335
:10176000C81AD108E108F108112351F02DEC3CEC26
:101770004CEC5DE3C501B4010E948E0C4B015C0191
:1017800083E992E00E94CE000E940302FC01C09710
:101790000A9750F2EE32F10551F4112329F2102F7D
:1017A00001110BC018C001E0EBCF11E0E9CFE1302F
:1017B000F10509F4B9CF002341F0F094E094D094FE
:1017C000C094C11CD11CE11CF11CC701B6010E94D0
:1017D0002F0C112341F0C701B6010E942F0CA50167
:1017E00094010E948E0C6093850270938602809310
:1017F00087029093880273CF60E070E0CB01F3CF53
:1018000083E992E00E94F000181619067CF46091BA
:10181000850270918602809187029091880242E051
:101820000E943B0488E191E00E94B90300E010E0CF
:101830000E94F10501151105D9F30E94FC008823CF
:10184000B9F30E940000F4CF1D3008F0FFCE19CF8D
:101850000E946A0C08F481E00895E89409C097FB9F
:101860003EF490958095709561957F4F8F4F9F4F77
:101870009923A9F0F92F96E9BB279395F6958795BB
:1018800077956795B795F111F8CFFAF4BB0F11F47E
:1018900060FF1BC06F5F7F4F8F4F9F4F16C0882325
:1018A00011F096E911C0772321F09EE8872F762F5B
:1018B00005C0662371F096E8862F70E060E02AF09C
:1018C0009A95660F771F881FDAF7880F9695879588
:1018D00097F90895990F0008550FAA0BE0E8FEEF5D
:1018E00016161706E807F907C0F012161306E407E4
:1018F000F50798F0621B730B840B950B39F40A26DD
:1019000061F0232B242B252B21F408950A2609F4BA
:10191000A140A6958FEF811D811D08950E94A10C05
:101920000C94120D0E94040D38F00E940B0D20F053
:10193000952311F00C94FB0C0C94010D11240C94C4
:10194000460D0E94230D70F3959FC1F3950F50E053
:10195000551F629FF001729FBB27F00DB11D639F61
:10196000AA27F00DB11DAA1F649F6627B00DA11D07
:10197000661F829F2227B00DA11D621F739FB00DAD
:10198000A11D621F839FA00D611D221F749F33271D
:10199000A00D611D231F849F600D211D822F762FB6
:1019A0006A2F11249F5750409AF0F1F088234AF093
:1019B000EE0FFF1FBB1F661F771F881F91505040FF
:1019C000A9F79E3F510580F00C94FB0C0C94460D3A
:1019D0005F3FE4F3983ED4F3869577956795B79586
:1019E000F795E7959F5FC1F7FE2B880F911D9695A0
:1019F000879597F9089597F99F6780E870E060E010
:101A000008959FEF80EC089500240A941616170697
:101A100018060906089500240A94121613061406DF
:101A200005060895092E0394000C11F4882352F042
:101A3000BB0F40F4BF2B11F460FF04C06F5F7F4FFA
:101A40008F4F9F4F089557FD9058440F551F59F0E1
:101A50005F3F71F04795880F97FB991F61F09F3F9B
:101A600079F087950895121613061406551FF2CFC4
:101A70004695F1DF08C0161617061806991FF1CF14
:101A800086957105610508940895E894BB2766273B
:101A90007727CB0197F908950E94570DA59F900DC8
:101AA000B49F900DA49F800D911D11240895A29FB5
:101AB000B001B39FC001A39F700D811D1124911D22
:101AC000B29F700D811D1124911D08955058BB27A0
:101AD000AA270E947E0D0C94120D0E94040D38F06E
:101AE0000E940B0D20F039F49F3F19F426F40C945A
:101AF000010D0EF4E095E7FB0C94FB0CE92F0E941E
:101B0000230D58F3BA17620773078407950720F06F
:101B100079F4A6F50C94450D0EF4E0950B2EBA2F32
:101B2000A02D0B01B90190010C01CA01A0011124E3
:101B3000FF27591B99F0593F50F4503E68F11A168F
:101B4000F040A22F232F342F4427585FF3CF469520
:101B500037952795A795F0405395C9F77EF41F1642
:101B6000BA0B620B730B840BBAF09150A1F0FF0F0C
:101B7000BB1F661F771F881FC2F70EC0BA0F621FF8
:101B8000731F841F48F4879577956795B795F795E8
:101B90009E3F08F0B0CF9395880F08F09927EE0F7D
:101BA0009795879508950E94E70D0C94120D0E9459
:101BB0000B0D58F00E94040D40F029F45F3F29F00E
:101BC0000C94FB0C51110C94460D0C94010D0E94C9
:101BD000230D68F39923B1F3552391F3951B550B0E
:101BE000BB27AA2762177307840738F09F5F5F4FF0
:101BF000220F331F441FAA1FA9F335D00E2E3AF02F
:101C0000E0E832D091505040E695001CCAF72BD046
:101C1000FE2F29D0660F771F881FBB1F2617370797
:101C20004807AB07B0E809F0BB0B802DBF01FF27C9
:101C300093585F4F3AF09E3F510578F00C94FB0C9F
:101C40000C94460D5F3FE4F3983ED4F38695779568
:101C50006795B795F7959F5FC9F7880F911D969582
:101C6000879597F90895E1E0660F771F881FBB1FDE
:101C7000621773078407BA0720F0621B730B840B8B
:101C8000BA0BEE1F88F7E09508950E942B0D88F09F
:101C90009F5798F0B92F9927B751B0F0E1F0660F30
:101CA000771F881F991F1AF0BA95C9F714C0B13071
:101CB00091F00E94450DB1E008950C94450D672FF9
:101CC000782F8827B85F39F0B93FCCF386957795A0
:101CD0006795B395D9F73EF4909580957095619589
:101CE0007F4F8F4F9F4F08950E946A0C08F48FEF2B
:101CF00008950E946A0C880B990B089597FB072E94
:101D000016F4009407D077FD09D00E94B40E07FCAA
:101D100005D03EF4909581959F4F089570956195FB
:101D20007F4F0895A1E21A2EAA1BBB1BFD010DC017
:101D3000AA1FBB1FEE1FFF1FA217B307E407F5077B
:101D400020F0A21BB30BE40BF50B661F771F881F57
:101D5000991F1A9469F760957095809590959B01ED
:101D6000AC01BD01CF010895AA1BBB1B51E107C007
:101D7000AA1FBB1FA617B70710F0A61BB70B881F1B
:101D8000991F5A95A9F780959095BC01CD010895AA
:101D9000EE0FFF1F0590F491E02D0994F894FFCF0A
:101DA0005E00BC0077010000000032019200BF001D
:101DB0007F01F000CE00E2000D0A006E616E006946
:101DC0006E66006F7666003000466F756E64206741
:101DD000686F7374206465766963652061742000A0
:101DE0002062757420636F756C64206E6F7420645C
:101DF000657465637420616464726573732E204337
:101E00006865636B20706F77657220616E64206314
:101E100061626C696E672E0052656164696E6773FA
:101E20003A0053656E736F72207C202020202020A2
:101E3000416464726573732020202020207C20542C
:101E4000656D70657261747572650053656E736F50
:101E5000722063616E6E6F742062652063686563D3
:101E60006B65642E005F5F5F5F5F5F5F5F5F5F5FFB
:101E70005F5F5F5F5F5F5F5F5F5F5F5F5F5F5F5F72
:101E80005F5F5F5F5F5F5F5F5F5F5F004572726FA5
:101E900072733A0053656E736F72207C202020208D
:101EA0002020416464726573732020202020207CF0
:101EB0002054656D7065726174757265207C205464
:101EC000696D655B6D696E5D0020202020202020FB
:101ED000202020004C6F636174696E672064657612
:101EE000696365732E2E2E0020466F756E64200088
:101EF00020646576696365732E00456E7465722093
:101F000074686520616D6269656E742074656D70BA
:0A1F1000657261747572653A200075
:00000001FF
